:100000000C9461000C9473000C9473000C947300B6
:100010000C9473000C9473000C9473000C94730094
:100020000C9473000C9473000C9473000C94730084
:100030000C9473000C9473000C9473000C94730074
:100040000C94C0010C9473000C9473000C94730016
:100050000C9473000C9473000C9473000C940A02BB
:100060000C9473000C947300000000002300260021
:10007000290000000008000201000003040700003E
:1000800000000000000000000000250028002B00F8
:1000900000000000240027002A00040404040404D3
:1000A0000404020202020202030303030303010227
:1000B00004081020408001020408102001020408F6
:1000C000102011241FBECFEFD8E0DEBFCDBF21E04E
:1000D000A0E0B1E001C01D92AD30B207E1F70E948F
:1000E0005F020C9439030C940000CF93DF9390E0EF
:1000F000FC01E255FF4F249186569F4FFC018491ED
:100100008823C1F090E0880F991FFC01E057FF4F52
:10011000C591D491FC01EA57FF4FA591B4919FB7C7
:10012000F8943881822F809583238883EC91E22B89
:10013000EC939FBFDF91CF91089590E0FC01EE58C2
:10014000FF4F2491FC01E255FF4F3491FC01E6562C
:10015000FF4FE491EE23C1F1222339F02330E9F07F
:1001600090F4213001F1223011F1F0E0EE0FFF1F89
:10017000E859FF4FA591B491EC91E32381E090E021
:1001800029F580E008952730A9F02830C9F02430FF
:1001900061F7809180008F7D03C0809180008F7710
:1001A00080938000E2CF84B58F7784BDDECF84B5A5
:1001B0008F7DFBCF8091B0008F778093B000D5CF3B
:1001C0008091B0008F7DF9CF80E090E008953FB737
:1001D000F8948091050190910601A0910701B091DA
:1001E000080126B5A89B05C02F3F19F00196A11D57
:1001F000B11D3FBFBA2FA92F982F8827BC01CD0171
:10020000620F711D811D911D42E0660F771F881FCF
:10021000991F4A95D1F708958F929F92AF92BF92FE
:10022000CF92DF92EF92FF920E94E7004B015C01B8
:1002300084E6C82ED12CE12CF12C0E94E70068192D
:1002400079098A099B09683E734081059105A8F3E5
:1002500021E0C21AD108E108F10888EE880E83E097
:10026000981EA11CB11CC114D104E104F10429F7AA
:10027000FF90EF90DF90CF90BF90AF909F908F90C6
:10028000089580910A018230B9F128F4882359F049
:100290008130E9F00895843009F452C0E8F18530E6
:1002A00009F460C0089584E085B98BB1877E8BB96D
:1002B0005D9A1092800081E88093B00010927A00DD
:1002C00080E480937B0083E080937C0021C092E0F7
:1002D00095B98BB1877E8BB95D9A1092800081E8C9
:1002E0008093B00010927A0080E480937B0090931A
:1002F0007C0080B78E7F0EC085B98BB1877D8BB9AE
:100300005C9A1092B00081E28093800010927B0092
:1003100080B7836080BF089588E085B98BB1877D01
:100320008BB95C9A1092B00081E2809380001092A9
:100330007A0080E480937B0083E080937C00D9CFB7
:1003400088E085B98BB18F7C8BB95B9A1092B00035
:1003500081E88093800010927A0080E480937B0093
:1003600082E0B2CF84E085B98BB18F7C8BB95B9A88
:100370001092B00081E88093800010927B00B9CF8A
:100380001F920F920FB60F9211242F933F938F93CA
:100390009F93AF93BF938091010190910201A0912F
:1003A0000301B09104013091000123E0230F2D37A8
:1003B00058F50196A11DB11D209300018093010104
:1003C00090930201A0930301B09304018091050171
:1003D00090910601A0910701B09108010196A11D1D
:1003E000B11D8093050190930601A0930701B0937E
:1003F0000801BF91AF919F918F913F912F910F90E5
:100400000FBE0F901F90189526E8230F0296A11D8E
:10041000B11DD2CF1F920F920FB60F9211242F93BE
:100420003F934F935F936F937F938F939F93AF937C
:10043000BF93CF93EF93FF9310920C0110920B0197
:10044000C0910A014C2F417020910B0130910C0199
:100450002A303105C8F4442351F000B605FC0AC027
:100460002150310930930C0120930B0103C000B6D9
:1004700005FCF6CF80910B0190910C0101969093B1
:100480000C0180930B01E0CF0E94410181E08C0FB1
:1004900066E00E942D0390930A01FF91EF91CF91A6
:1004A000BF91AF919F918F917F916F915F914F918C
:1004B0003F912F910F900FBE0F901F901895789439
:1004C00084B5826084BD84B5816084BD85B5826059
:1004D00085BD85B5816085BD80916E00816080930A
:1004E0006E00109281008091810082608093810073
:1004F0008091810081608093810080918000816083
:10050000809380008091B10084608093B1008091DD
:10051000B00081608093B00080917A008460809305
:100520007A0080917A00826080937A0080917A00CC
:10053000816080937A0080917A00806880937A004D
:100540001092C1008AB188638AB91BB884B18E60E9
:1005500084B981E385B91092800081E080938100A5
:100560001092B0008093B10080E180BF8EE00E94C5
:1005700075008FE00E94750084E690E090938900FA
:100580008093880090938B0080938A008093B300BF
:1005900088E893E190930C0180930B0116E0C091E1
:1005A0000B01D0910C01C536D105C0F0CE01880FEA
:1005B000991F880F991F05970197F1F70E94410134
:1005C00080910A018F5F612F0E942D0390930A0191
:1005D0006497D0930C01C0930B01E1CF84E6809324
:1005E000090180B7886080BF8EE00E949D00892B42
:1005F000C9F4809109018F3FA9F08F5F80930901B1
:10060000823308F482E3282F30E03093890020936E
:10061000880030938B0020938A008093B3000E945F
:100620000C01E2CF8FE00E949D00892BE9F68091BA
:1006300009018333C8F2815080930901282F30E0EB
:10064000309389002093880030938B0020938A0098
:100650008093B3000E940C01E5CF991B79E004C0A0
:10066000991F961708F0961B881F7A95C9F78095F1
:060670000895F894FFCF8D
:00000001FF
